:020000040000FA
:1000000007309F0003138316051405168516051780
:100010008510051185110030860003138312063008
:100020008600851405158515051C142817288518C4
:100030001E280519212885192428272885104B28D2
:100040003F2805114B283F2885114B283F28051EC6
:100050002F282A285E200630860085144228851E17
:10006000372832285E205B30860005154528051F9D
:1000700027283A285E204F30860085154828051825
:100080003F281428051A42281428851A45281428C0
:10009000051B482814288518522805195528851944
:1000A00058285B280630860020285B3086002328ED
:1000B0004F30860026283F3086002728A001A00F59
:0400C0005F280800AD
:00000001FF
